:100000000C94BA010C94D7010C94F2010C94D70112
:100010000C94D7010C94D7010C94D7010C94D70100
:100020000C94D7010C94D7010C9469190C94D70146
:100030000C94D7010C94D7010C94D7010C94D701E0
:100040000C94D7010C94D7010C94D7010C94D701D0
:100050000C94D701E105E1050D060D067506930622
:10006000AB07AB079E0637074807480729001E0065
:100070001F0020002100220023002400250026006C
:1000800027002D002E002A004C002B0014001A001F
:100090000800150017001C0018000C0012001300C7
:1000A0002F00300028004B00390004001600070024
:1000B00009000A000B000D000E000F003300340091
:1000C000000031004E00E10064001D001B0006002E
:1000D0001900050011001000360037003800E50057
:1000E00052004D00E000E300E200000000000000CC
:1000F0002C0000000000E6000151025150005100A8
:100100004F0035003A003B003C003D003E003F0000
:100110004000410042004300440045000000000050
:1001200000000000000000000000000000000000CF
:1001300000000000000000000000000000000000BF
:1001400000000000000000000000000000000000AF
:10015000000000000000000000000000000000009F
:10016000000000000000000000000000000000008F
:10017000000000000000000000000000000000007F
:10018000000000000000000000000000000001006E
:10019000000000000000000000000000000000005F
:1001A00000000000000000000000BD00BE00A9002B
:1001B000AA000000000000000000A70000000000EE
:1001C00000000000000000000000A500000000008A
:1001D0000000000000000000A60000000000000079
:1001E000000000000000000000000000000000000F
:1001F00000000000000000000000000000000000FF
:1002000000000000000000000000000000000000EE
:10021000000000000000000000000000A800000036
:1002200000000000000001000000000000000902C2
:100230003B00020100A0320904000001030101009B
:100240000921010100012240000705810308000186
:10025000090401000103000000092101010001223D
:100260007B00070583030800011201100100000054
:1002700008626B696801000102000116034400492D
:100280000053004300490050004C0049004E004517
:10029000000000200363006F0073006500790066B2
:1002A0000061006E006E00690074007500740074D7
:1002B00000690000000403090405010902A1018589
:1002C000020901A100050919012908150025019558
:1002D00008750181020501093009311581257F95D5
:1002E000027508810609381581257F9501750881F9
:1002F00006050C0A38021581257F950175088106CF
:10030000C0C005010980A101850319012AB70015A4
:100310000126B700950175108100C0050C0901A1E7
:1003200001850419012AA002150126A00295017574
:10033000108100C005010906A101050719E029E7A0
:100340001500250195087501810295017508810345
:100350000507190029FF150026FF0095067508817D
:10036000000508190129059505750191029501758A
:10037000039103C011241FBECFE5D8E0DEBFCDBF7F
:1003800010E0A0E6B0E0E8E4FAE302C005900D92C8
:10039000A03FB107D9F722E0A0EFB0E001C01D9265
:1003A000A13AB207E1F70E9494130C94221D0C9419
:1003B0000000A82FB92F80E090E041E050EA60955E
:1003C00030E009C02D9182279795879510F08427FA
:1003D0009527305EC8F36F5FA8F30895EADF8D9329
:1003E0009D930895CF93CFB7CF93DF93C395839B0E
:1003F000E9F7839B10C0839B0EC0839B0CC0839B3B
:100400000AC0839B08C0839B06C0C0917802C39535
:10041000C09378028EC06F93C0917702DD27C158D8
:10042000DD4F2F9365E5839B03C02F916F91E1CF43
:100430000F931F934F9320E040E15F9300B30C7044
:1004400003FB27F93F9350E03BE039C01C70406448
:100450002F77012F5F5F1EC0406810B31C702F778D
:1004600052501FC0406400B32F770C70D1F15F5F12
:1004700000C023C0406210B32F771C7091F15F5F02
:1004800000C025C00C701027515012F45D5F0000B1
:10049000115027952C3F10B3C8F61C70012701504E
:1004A00027952C3FC8F64227499300B30C701027BC
:1004B0004F73115027952C3FA8F64695469510B3DB
:1004C0001C7079F00127015027952C3F98F66B5A44
:1004D00060F3315000B3B0F600C010E81ABF002737
:1004E0001CC03B503195C31BD04010E81ABF088197
:1004F000033C21F10B3411F1209174021981110F89
:100500001213EDCF4A81441F093679F10D3211F0F3
:10051000013E29F74F7009F0042F00937D023F91AF
:100520005F914F911F910F912F916F91CAB7C7FDA6
:100530005DCFDF91CF91CFBFCF91189520917D02F4
:10054000222369F310917B02112309F049C0343052
:100550000AF448C030937B02209376021091770210
:100560003BE0311B309377023DC000917B020130AC
:10057000BCF50AE54F7049F43091790034FD33C081
:1005800000937900C1E5D2E032C0433059F04430E5
:1005900091F030915C0234FD26C000935C02CDE501
:1005A000D2E025C03091950234FD1DC00093950224
:1005B000C6E9D2E01CC03091680234FD14C000933B
:1005C0006802C9E6D2E013C0052710E000C00000B1
:1005D00002BB1AC0052710E0221F1DC010E021C079
:1005E0004AE502C032ED432FC4E1D0E032E011B35E
:1005F0001C60939A02B311BB5CE020E865E320FF26
:10060000052702BB279517951C3FF0F66695B8F7AE
:10061000B1F720FF052702BB279517951C3FD0F6A1
:100620002795179517FF052700001C3F02BBB0F662
:1006300029913A9519F7037F10917C02110FC65149
:10064000D04002BB11F01093740210E81ABF08608A
:1006500011B3137F402F437F54E05A95F1F702BB4B
:1006600011BB42BB5CCF81E0089581E008950C94FA
:10067000350308950C9439031F93CF93DF9300D073
:1006800000D01F92CDB7DEB749835A836B83309178
:10069000F30089819A81311114C0662359F0222315
:1006A00049F00E94E809182F682F89819A810E94D9
:1006B000910903C00E94BC09182F69817A81812F9A
:1006C00004C00E94E80969817A810F900F900F9011
:1006D0000F900F90DF91CF911F910C940511FC01A9
:1006E000262F408151816281738184810C943C0367
:1006F00081E00895CF93DF93EC0160E00E946F03E7
:10070000BE01DF91CF910C943A030C944B120C94E0
:10071000471208950E943B080E9489032FEF84E34B
:100720009CE0215080409040E1F700C000000C9414
:100730008F190F931F93CF93DF938C0161E00E9479
:100740006F03EC01B8010E9437038823F1F1B8016F
:10075000CE010E9416188823C1F1B801CE010E9473
:100760002A16882391F1B801CE010E9472178823BE
:1007700061F1F8018281882309F1CB358DE5D80735
:10078000C1F050F4C115FCE5DF0781F0CF3DDC4539
:10079000A9F40E94060F19C0CC35EDE5DE0761F023
:1007A000CD35DD4559F40E94490E08C00E948A03E8
:1007B0000CC00E94520E02C00E94550EC801DF916B
:1007C000CF911F910F910C94330380E0DF91CF9173
:1007D0001F910F9108950E9413190C9404040E9414
:1007E00007040C94191908950C94F30381E00895FB
:1007F0000C94F6030895CF93C82F0E94F4038C2F16
:100800000E94F803CF91089580E00C94FB030E94AE
:1008100072180C94FB030E9472189091F2008917D1
:1008200021F08093F2000C94FB030895CF93DF93A3
:10083000CDB7DEB72B970FB6F894DEBF0FBECDBF96
:100840004F83588769877A878B8761110E94AE0D25
:100850009E012F5F3F4F86E0F90111928A95E9F7DB
:1008600085E0FE013796D90101900D928A95E1F756
:1008700089819A814C815D81452B31F09F3F31F414
:1008800091E08F3F19F403C091E001C090E090FF28
:1008900009C049815A816B817C818D819E810E9432
:1008A000CF0C05C0C9010E9478038111F2CF2B96AD
:1008B0000FB6F894DEBF0FBECDBFDF91CF91089584
:1008C000FC01808191810E942A0A0895CF93882398
:1008D00009F4A4C0C82F8238C1F40E94721881FDA7
:1008E0009DC069E380916200909163000E940519A8
:1008F0000E94D00D2FEF81EE94E021508040904077
:10090000E1F700C0000069E319C0833801F50E94D7
:10091000721880FD83C063E580916200909163004E
:100920000E9405190E94D00D2FEF81EE94E0215016
:1009300080409040E1F700C0000063E580916200D4
:10094000909163000E940719CF910C94D00D8438C8
:10095000C1F40E94721882FD61C067E48091620058
:10096000909163000E9405190E94D00D2FEF81EE37
:1009700094E0215080409040E1F700C0000067E41F
:10098000DDCF8CEF8C0F813AD0F46C2F8091620018
:10099000909163000E94CF18882349F06C2F8091BA
:1009A0006200909163000E9407190E94D00D6C2F85
:1009B00080916200909163000E940519C5CF80E28A
:1009C0008C0F883048F4C77081E001C0880FCA9549
:1009D000EAF70E94910DB8CFEBE5EC0FE33040F45D
:1009E000F0E0E855FF4F808190E0CF910C9497188C
:1009F000E8E5EC0FE73150F4F0E0EE0FFF1FE658AA
:100A0000FF4F80819181CF910C94AD18CD3E30F095
:100A10008C2F0E941914CF910C94EB14CF91089550
:100A2000882309F464C0823879F40E94721881FF27
:100A30005EC069E380916200909163000E94051995
:100A40000E94D00D69E310C08338B1F40E9472187F
:100A500080FF4DC063E580916200909163000E9429
:100A600005190E94D00D63E58091620090916300AA
:100A70000E9407190C94D00D843879F40E947218E2
:100A800082FF35C067E480916200909163000E940C
:100A900005190E94D00D67E4E7CF9CEF980F913ABB
:100AA00010F4682FE1CF90E2980F983050F48770DF
:100AB00091E001C0990F8A95EAF7892F0E94970D5E
:100AC000D9CF9BE5980F933020F480E090E00C9410
:100AD000971898E5980F973120F480E090E00C94F7
:100AE000AD188D3E20F00E9474140C94EB14089500
:100AF0001F93CF93DF93182FEB010E94660420977A
:100B000041F08FE99FE00197F1F700C000002197C5
:100B1000F6CF812FDF91CF911F910C94100589336F
:100B200019F060E070E002C060E570E00C947805B8
:100B3000882321F00E94910D0C94D00D08958823F4
:100B400021F00E94970D0C94D00D0895CF92DF9262
:100B5000EF92FF920F931F93CF93DF937C01D62FD9
:100B6000C72FFC011281058102950F700E94870D2D
:100B70008823B9F01123A9F08C2F807F803421F0D5
:100B800080E28D0F883068F08091380282FD09C0C4
:100B900082E00E94170E0E94870D91E0D82ED92680
:100BA00001C0D12CCC2EC2948FE0C8228C2D90E0B5
:100BB0008C30910508F0CFC1FC01E65DFF4F0C942D
:100BC000BA1C8C2F807FCF70882311F0C295C07F14
:100BD000112399F0CC2309F4AAC180E28D0F88304B
:100BE00010F0D11104C08C2F0E94910D03C08C2FE6
:100BF0000E94A10D0E94D00D9AC18D2F0E94100558
:100C0000CC2309F4A8C180E28D0F883038F1DD23B0
:100C100029F18C2F0E94A70D24C08C2F807FCF70CC
:100C2000803211F0C295C07FDD2319F0D130A1F1DF
:100C30003DC08091380282FF17C0112349F0CC23B8
:100C400029F08C2F0E94910D0E94D00D80E070C180
:100C500080E00E941005CC2309F47DC18C2F0E94F6
:100C6000970D0E94D00D77C1112371F0002341F040
:100C7000013031F40E94B10D8C2B0E94B90D6BC173
:100C80000E94B10D8C2B1DC0002319F0013009F416
:100C900062C10E94C60D25C0112321F0063008F064
:100CA0005AC10EC0053008F056C11BC0112361F0B7
:100CB000002331F0F701858180FF39C18F70858372
:100CC0008C2F0E94980547C1002359F0D93309F0B1
:100CD0003FC1FFEF07EE13E0F15000401040E1F795
:100CE00035C18C2F0E949F0536C18C2F8695869525
:100CF000837019F0813061F02EC1112321F08D2F06
:100D00009C2F937002C080E090E00E9497182BC146
:100D1000112321F08D2F9C2F937002C080E090E072
:100D20000E94AD1820C18D2F112319F00E941914B3
:100D300002C00E9474140E94EB1415C18C2F8370A2
:100D400009F047C011110BC12D2F22952695277050
:100D5000220F220F6D2F6F70862F90E0A0E0B0E081
:100D6000022E04C0880F991FAA1FBB1F0A94D2F736
:100D7000D4FF10C04FE050E060E070E004C0440FCA
:100D8000551F661F771F2A95D2F74095509560959D
:100D9000709503C040E050E0BA01C695C695C37097
:100DA0008A019B01082B192B2A2B3B2BC901B80167
:100DB000C23049F058F4C13019F00E94A708CFC0E2
:100DC0000E949508CCC00E94B908C9C00E9493082F
:100DD000C6C0112319F08C2F817001C0869588231D
:100DE00009F4BDC02D2F229526952770220F220FC2
:100DF0006D2F6F70862F90E0A0E0B0E0022E04C04F
:100E0000880F991FAA1FBB1F0A94D2F7D4FF10C0E6
:100E10004FE050E060E070E004C0440F551F661FD3
:100E2000771F2A95D2F7409550956095709503C02D
:100E300040E050E0BA01C695C695C3708A019B0197
:100E4000082B192B2A2B3B2BC901B801C23049F0C2
:100E500058F4C13019F00E946C0981C00E945A09EF
:100E60007EC00E947E097BC00E94CD0878C0CF70F2
:100E7000112339F08C2F0E94F3088D2F0E949805C2
:100E80006EC08D2F0E949F058C2F0E94140967C091
:100E9000D23F21F128F4D03F41F0D13FC1F043C00F
:100EA000D33F19F1D43F79F03EC0112341F0053012
:100EB00008F051C08C2F8F710E9439094CC0063048
:100EC00008F049C0F7CF8091380282FF18C0112383
:100ED00039F08C2F8F710E94F3083DC01123C9F3A4
:100EE0008C2F8F710E94140936C0112329F08C2F8A
:100EF0008F710E94DE082FC00E94D9082CC01123D8
:100F000049F0CF718C2F0E94F30863E08C2F0E9470
:100F1000FC0D21C081E00E94170E0230E0F082E05B
:100F20000E94170E18C0112331F0002391F28D2F6B
:100F30000E94660410C0002399F2D93349F41FEFD0
:100F400027EE33E0115020403040E1F700C00000B0
:100F50008D2F0E94100588EF8C0D843020F40E94A4
:100F600072180E94FB03DD20C9F00E94830D80FDF2
:100F700015C0F70112820E947D0D0E94F308C7017F
:100F80000E94EF070E947D0DDF91CF911F910F917D
:100F9000FF90EF90DF90CF900C941409DF91CF91E8
:100FA0001F910F91FF90EF90DF90CF9008950F93D6
:100FB0001F93CF93DF93EC01688179818A810E942E
:100FC000350A8C010E9490090E948108B801CE0167
:100FD0000E94A605DF91CF911F910F910895CF93A5
:100FE000DF93EC01988189812B813C81232B31F0A7
:100FF0008F3F31F481E09F3F19F403C081E001C0CD
:1010000080E080FD1DC0CE010E949903811110C0B7
:101010000E94870D8823A1F08A81882389F080911E
:10102000380282FD0DC082E0DF91CF910C94170E43
:10103000CE010E94D707CE01DF91CF910C947A03A5
:10104000DF91CF91089580E090E00E94971880E0B2
:1010500090E00E94AD180E94AE0D0E94D00D0E943B
:101060001C160C94EB1480916200909163000E9416
:1010700009190C9423080E949E0D0C943308929534
:101080009F70963079F010F4925001C09A509230CF
:1010900068F4803F69F018F4883E40F409C0843F4A
:1010A00029F406C0883E20F0813F11F080E00895C9
:1010B00081E00895FC01808191810E942A0A0E94AA
:1010C0003F080895CF93DF9300D000D01F92CDB793
:1010D000DEB70F900F900F900F900F90DF91CF9190
:1010E0000895CF93DF9300D000D000D0CDB7DEB706
:1010F00026960FB6F894DEBF0FBECDBFDF91CF911D
:101100000895089508950C9482080C9483080E9411
:10111000850860932A0170932B0180932C01909392
:101120002D010C9423080C9487080F931F930091B2
:101130002A0110912B0120912C0130912D01602B5F
:10114000712B822B932B1F910F910C9487080F9377
:101150001F9300912A0110912B0120912C013091B5
:101160002D0160237123822393231F910F910C94EF
:1011700087080F931F9300912A0110912B01209152
:101180002C0130912D0160277127822793271F9111
:101190000F910C9487080C9482080E94CB086093EE
:1011A00026017093270180932801909329010C94C4
:1011B000230860E070E0CB010C94CD080F931F93DF
:1011C00041E050E060E070E08A019B0104C0000F44
:1011D000111F221F331F8A95D2F7C901B8011F9131
:1011E0000F910C94CD080F931F9341E050E060E005
:1011F00070E004C0440F551F661F771F8A95D2F711
:101200008091260190912701A0912801B091290198
:101210008A019B01082B192B2A2B3B2BC901B801F2
:101220001F910F910C94CD080F931F9341E050E054
:1012300060E070E004C0440F551F661F771F8A9559
:10124000D2F74095509560957095809126019091C8
:101250002701A0912801B09129018A019B0108234F
:1012600019232A233B23C901B8011F910F910C9424
:10127000CD080F931F9341E050E060E070E004C0A0
:10128000440F551F661F771F8A95D2F7809126015C
:1012900090912701A0912801B09129018A019B0119
:1012A000082719272A273B27C901B8011F910F9149
:1012B0000C94CD080F931F930091260110912701E4
:1012C0002091280130912901602B712B822B932BC7
:1012D0001F910F910C94CD080F931F93009126013D
:1012E0001091270120912801309129016023712359
:1012F000822393231F910F910C94CD080F931F937A
:101300000091260110912701209128013091290197
:1013100060277127822793271F910F910C94CD0886
:1013200008952FE0929F800D1124E82FE695E69511
:10133000E695877051E001C0550F8A95EAF785E080
:10134000E89FF0011124EC50FF4F20E030E070E006
:101350004081CB01022E02C0969587950A94E2F750
:101360008170819584278523842781932F5F3F4F48
:101370002530310569F708952FE0929F800D1124E3
:10138000682F669566956695982F977085E0689F9B
:10139000B001112440E050E080E0FB01E40FF51FB4
:1013A000EC50FF4F208130E0092E02C03695279582
:1013B0000A94E2F721703327042E01C0220F0A9409
:1013C000EAF7822B4F5F5F4F4530510531F70895A3
:1013D000BF92CF92DF92EF92FF920F931F93CF9322
:1013E000DF938C01C0902601D0902701E090280166
:1013F000F090290180912A0190912B01A0912C015C
:10140000B0912D01C82AD92AEA2AFB2ACFE1D0E0DF
:10141000D701C6010C2E04C0B695A7959795879560
:101420000A94D2F780FD04C0219790F7B12C07C031
:10143000BC2EB8018C2F0E9418110197A9F38B2D97
:10144000DF91CF911F910F91FF90EF90DF90CF90A0
:10145000BF900895CF93DF93EC010E94E809BE018D
:101460000E941811DF91CF9108951F93CF93DF93BE
:10147000EB019091F300992321F0CB010E942A0AFD
:1014800013C0882349F0CB010E94E809182F682F68
:10149000CE010E94910904C0CB010E94BC09182F03
:1014A000BE01812F0E941811DF91CF911F910895E5
:1014B0001F93CF93DF93C0912E0116E080912F01EF
:1014C000C81799F0D0E01C9FF0011D9FF00D11246A
:1014D000E05DFE4F408151816281738184819581FD
:1014E0000E9471082196C770E9CFDF91CF911F91BB
:1014F0000895409160015091610160916201709185
:10150000630180916401909165010C947108EF92E0
:10151000FF920F931F93CF93DF9380916501829584
:101520008F7009F065C080916201882309F460C062
:1015300080912E01F0902F011091600100916101C6
:10154000609163017091640191E01F3F09F090E0A8
:10155000C0916000D0916100292F96E0E92E8F158F
:1015600009F446C06115710521F00F3F21F030E00C
:1015700003C031E001C0322F90E030FD36C0E89E5C
:10158000F001E99EF00D1124DF01A05DBE4F119620
:101590003C911197301329C03C91311326C012960B
:1015A0003C911297311121C013964D915C91149783
:1015B000461B570B4C175D07C0F4809165018F7077
:1015C000806180936501EB5CFE4F80818F7080614C
:1015D000808380E691E00E94EF07DF91CF911F9119
:1015E0000F91FF90EF900C94580A01968770B7CF37
:1015F000DF91CF911F910F91FF90EF9008959F92EF
:10160000AF92BF92CF92DF92EF92FF920F931F9310
:10161000CF93DF93CDB7DEB761970FB6F894DEBFF7
:101620000FBECDBF8C0185E0F801DE011D96019053
:101630000D928A95E1F7D8011296EC909091600195
:10164000E091610120916301309164012115310520
:1016500031F0EF3F31F481E09F3F19F403C081E0A6
:1016600001C080E0B82FB1709B2E80FD47C1D8012A
:101670004C9111965C9111971396AD90BC90149774
:1016800080E6C82E81E0D82EF0906201B501621B81
:10169000730B2091600030916100FF2009F4D9C0E4
:1016A000809165016217730708F095C0282F207F8D
:1016B00009F052C05E1313C0491311C0FE2CE11093
:1016C0000EC08F708061809365010E94790AC60107
:1016D0000E94EF0780916501F80185834DC1AB2819
:1016E00031F05F3F31F481E04F3F19F403C081E0F6
:1016F00001C080E080FD03C081E08E2502C080E053
:1017000090E0F82FF170FF2E80FF1CC080912E0119
:1017100020912F0136E0821709F40BC190E0389F29
:10172000F001399FF00D1124E05DFE4F61815613E9
:1017300006C06081461303C06281E61203C00196B1
:101740008770E9CFFE2CEE2009F416C18091650167
:1017500081608093650154C05E1306C0491304C0C4
:10176000E11002C0F80199C0C8010E945A088823FC
:1017700061F1EE2051F120916501822F82958F70E9
:1017800090E0029774F080916001909161019887D8
:101790008F831986BB86AA862C87CE0107960E9466
:1017A000EF0786E0F801A0E6B1E001900D928A957E
:1017B000E1F70E94870A0E94790A0AC05E1711F1B8
:1017C000C8010E945A0881112CC0C8010E94EF076D
:1017D000FF24F394D1C0282F207F81F77A2DB98A76
:1017E000A88A6E2D89890E94620880E691E00E9495
:1017F000EF0786E0D6011D928A95E9F70E94790AE3
:10180000F12CBAC04913DCCFE110DACFF80185839F
:10181000C8010E94EF0786E0D6011D928A95E9F77C
:10182000ABC0EE2091F220916501822F82958F70DE
:1018300090E002970CF4B5CF809160019091610126
:101840009A8389831B82BD82AC822E83CE0101964E
:10185000A6CF6217730708F044C0FE2CEE2009F4EF
:10186000B4CF5E1330C049132EC02091650120FD16
:1018700021C0822F82958F70482F50E0411551056D
:10188000C9F0F80125834F30510541F08F5F982F43
:101890009295907F822F8F70892B8583C8010E943B
:1018A000EF0786E0F801A0E6B1E001900D928A957D
:1018B000E1F73CC086E0F801A0E6B1E001900D92AE
:1018C0008A95E1F759C0C8010E945A08811169CF71
:1018D00080916501816080936501C8010E94EF07D6
:1018E0004BC07A2DB98AA88A6E2D89890E94620818
:1018F00086E0D6011D928A95E9F718C0EE2009F41A
:1019000064CFC8010E945A08F82E882309F45DCFDD
:1019100086E0F801A0E6B1E001900D928A95E1F72A
:1019200080E691E00E9460040E94870A0E94790A82
:1019300023C04D875E878D859E850E942A0A292FA8
:1019400022952F70223028F49F7039F0811105C044
:101950000BC0243028F49F7049F4805E883020F05A
:10196000C8010E94EF079F2CF92C06C0D8011596DC
:101970009C91907F91F7F8CF8F2D61960FB6F894D8
:10198000DEBF0FBECDBFDF91CF911F910F91FF90B2
:10199000EF90DF90CF90BF90AF909F9008951F93EE
:1019A000CF93DF93CDB7DEB72C970FB6F894DEBF99
:1019B0000FBECDBF4F83588769877A878B879C87F7
:1019C000CE0107960E94FF0A8823D1F09F81888567
:1019D0002A853B85232B31F08F3F31F481E09F3FF7
:1019E00019F403C081E001C080E080FD47C04F8151
:1019F000588569857A858B859C850E9471083EC0D3
:101A000086E0FE013796DE01119601900D928A95CF
:101A1000E1F7FF81E8856A857B856115710531F005
:101A2000EF3F31F481E0FF3F19F403C081E001C0D2
:101A300080E080FD23C020912F0130E0C901019694
:101A40008770992740912E0150E084179507F1F196
:101A5000F983EA837D836C8396E0929FD001939F04
:101A6000B00D1124A05DBE4FFE01319601900D9284
:101A70009A95E1F780932F010E94580A16E0809111
:101A80002E0190912F01891771F1189FC001112427
:101A9000805D9E4F0E94FF0A882329F1E0912E016C
:101AA0001E9FF0011124E05DFE4F40815181628153
:101AB0007381848195810E94710880912E0190E04C
:101AC00001968770992780932E01D9CF0E943B08F9
:101AD00010922F0110922E01E0E6F1E086E0DF0186
:101AE0001D928A95E9F72C960FB6F894DEBF0FBECB
:101AF000CDBFDF91CF911F910895809166018595AB
:101B000085958595089580916601877008959091D7
:101B10006601977081E009F480E008958091710179
:101B2000089590917101892B80937101089580959A
:101B30009091710189238093710108951092710130
:101B4000089590917001892B80937001089580957C
:101B50009091700189238093700108951092700113
:101B6000089580916701089508950C94B40D0C9424
:101B7000B50D9091380292FD08C0909167019817B9
:101B800021F0809367010C94B70D0895809167014F
:101B9000882329F01092670180E00C94B70D089516
:101BA000E0916200F0916300809171018083E09187
:101BB0006200F0916300908180917001892B808395
:101BC00080916701882381F0E0916200F0916300C9
:101BD0009081892B808380916200909163000E94A4
:101BE000C31881110E94C60D80916200909163001C
:101BF0000C947E180C94B40D9091380292FD10C094
:101C000098E0899F90011124262B209366010E9461
:101C1000F308809166018595859585950C94FA0D5C
:101C20000C94F3081092660180E00C94FA0D209158
:101C300066018095822380936601982F977099F4AE
:101C400030E0482F082E000C550B2417350759F0AB
:101C50009091380292FD07C08595859585950E94E3
:101C600014090C94120E08959091380292FB2227C9
:101C700020F9281769F080FB92F99093380280913F
:101C80003702909138020E94820E82E00C94170E67
:101C900008958091380282FB882780F991E0892796
:101CA0000C94340E81E00C94340E80E00C94340ECD
:101CB0006FEF7FEF80E090E00C940C1D80E090E0EF
:101CC0000E94E91C21E0893E9E4F09F020E0822F0E
:101CD000089582E090E00C94E11C83E090E00C9485
:101CE000E11CCF9384E090E00E94E11CC82F82E2C7
:101CF00090E00E94E11C2C2F30E0A901582BCA0172
:101D0000CF910895CF93C92F682F84E090E00E946F
:101D1000EF1C6C2F82E290E0CF910C94EF1CAB0192
:101D2000BC018FE090E00C94001DAB01BC0183E18D
:101D300090E00C94001D60E070E0CB010C94950ED7
:101D400060E070E0CB010E948F0E0C949B0E69EE58
:101D50007EEF80E090E00E940C1D60E082E090E069
:101D60000E94EF1C60E083E090E00E94EF1C109264
:101D70002A0110922B0110922C0110922D0160E08B
:101D800084E090E00E94EF1C60E082E290E00E941C
:101D9000EF1C60E085E090E00E94EF1C60E086E0D0
:101DA00090E00E94EF1C6FEF87E090E00E94EF1C34
:101DB00040E050E0BA0188E090E00E94001D60E041
:101DC0008DE090E00E94EF1C40E050E0BA0188E115
:101DD00090E00E94001D60E087E190E00E94EF1C0F
:101DE00040E050E0BA018CE190E00E94001D60E00C
:101DF00070E080E290E00E940C1D40E050E0BA01EB
:101E000088E190E00E94001D0C94A00E0C94A70E97
:101E1000682F8EE090E00C94EF1C0E944E196093A6
:101E2000800170938101809382019093830160937C
:101E30007C0170937D0180937E0190937F010895D2
:101E400084B7806884BF84B7806884BF089581E0C8
:101E500008950C94270F08950C942B0F0C942B0FBE
:101E60000C942E0F0C942B0F0C94320F0C942B0F00
:101E70000E94200F84EF91E10E9468180E94360FA3
:101E80000C94340F0E942C0F0C942B0F0E940E12F6
:101E90000C94FA030E943B190E94F3120E94460F11
:101EA0000C94300F5F926F927F928F929F92AF92BD
:101EB000BF92CF92DF92EF92FF920F931F93CF9337
:101EC000DF93CDB7DEB72A970FB6F894DEBF0FBE0B
:101ED000CDBF0E940813C82E81110E940D0F32E75A
:101EE000832E31E0932E00E010E0502E802F0E94D0
:101EF00032125C01F401619071904F0168267926DD
:101F000061147104B1F40F5F1F4F0530110569F7BB
:101F10008FEF89838A831B820E9442198160782F08
:101F20009D838C8349815A816B818D810E94160427
:101F30003AC08091840181FD0E943B12D12CEE2495
:101F4000E394F12CC3018E219F21892B29F10E945A
:101F5000290F8823A9F0DE825F82AE20BF2081E0B6
:101F6000AB2809F480E088870E9442198160782FAD
:101F70009A8789874E815F8168858A850E941604C9
:101F8000000F111FF801EE58FE4F80819181E82665
:101F9000F926F182E08207C0D394EE0CFF1CFFE02B
:101FA000DF12D0CFB0CF81E0C11001C080E02A960F
:101FB0000FB6F894DEBF0FBECDBFDF91CF911F915A
:101FC0000F91FF90EF90DF90CF90BF90AF909F90D8
:101FD0008F907F906F905F9008950E94520F0E94A3
:101FE00009150C940B04CF93DF930E941D11EC0193
:101FF000811521E5920708F045C0811530E593076A
:1020000008F094C0883E910528F5803E910508F0BF
:10201000F8C0883A910570F4853A910508F07CC0C3
:102020008130910509F475C008F4E8C0049708F000
:10203000E8C0E4C08F3B910508F0E0C0C85AD0E08A
:10204000CC0FDD1FC555DF4F0990D881C02DCE01C3
:102050009464D8C0811540E2940758F4811551E08A
:10206000950708F0CEC08D3E910508F4C7C0906575
:10207000C9C0C11580E4D80708F4C0C0DF70CE0124
:10208000906AC0C0811525E59207A8F4811534E552
:10209000930708F095C0811543E5940708F07BC0CD
:1020A000811552E5950708F061C0D82FCC27CE01E5
:1020B000816F906AA7C0C11589E5D807A0F4C11542
:1020C00028E5D20708F082C0C11536E5D30708F02D
:1020D00095C08C2F0E94B1118F7190E0D82FCC2722
:1020E000CE0190628FC0C1154AE5D40708F474C0D0
:1020F000CE0190568115904208F080C08D2F8F71CF
:102100000E94B111DD27D0628F71AE01582BCA0138
:1021100079C081E090E076C0C55AD0E0C752DF4F69
:102120008881C82FD0E0CE0190646CC074E0969591
:1021300087957A95E1F7282F23703C2F337081E043
:1021400090E002C0880F991F3A95E2F79C68AC01B5
:10215000522B9A019C2F9F709695969550E2959FD1
:10216000E0011124C9018C2B9D2B4CC08370992751
:1021700021E030E002C0220F331F8A95E2F79C2F46
:102180009695969580E2989FE0011124C22BD32B5F
:10219000CE019C6837C08370992721E030E002C0EF
:1021A000220F331F8A95E2F79C2F9695969540E271
:1021B000949FE0011124C22BD32BCE019A6822C038
:1021C000D82FCC27CE01846F906A1CC0DC2FCC277F
:1021D000CE01806F906A16C08C2F8F700E94B11153
:1021E00094E0D695C7959A95E1F7CF70D0E0DC2FB3
:1021F000CC27D0699E01282BC90104C080E090E063
:1022000001C0CE01DF91CF9108952BE4829FC001E0
:102210001124FC012FE0729FE00DF11D1124E60F47
:10222000F11DEE0FFF1FE459FF4F85919491089522
:102230000E9405110E94F30F08958238910569F1FB
:10224000B0F48133910509F46DC048F489329105E9
:1022500009F463C08A32910509F469C00895853391
:10226000910509F455C089339105B9F00895833E6D
:10227000910569F138F4803E9105B1F0823E9105F7
:1022800009F10895863E9105A9F1873E9105B9F1BE
:10229000843E910509F064C023C02091370220FDDF
:1022A0004FC021FD4DC008958091370280FD44C08C
:1022B0008091380280FF44C08091370284FD42C083
:1022C00083EE4DC08091370282FF38C0F5CF8091F8
:1022D000370282FD33C08091380280FD31C0ECCFDF
:1022E0008091380281FF32C08091370284FD2AC07C
:1022F00087EE35C08091370283FF26C0F5CF8091ED
:10230000370283FD21C08091380281FD1FC0ECCFD0
:102310008091370285FD1CC01DC08091370285FD6C
:1023200019C016C08091370286FD16C017C0809173
:10233000370286FD13C010C089E311C082EE0FC0C2
:1023400080EE0DC080E00BC086EE09C084EE07C0B1
:1023500089E205C085E303C08AE201C081E390E021
:1023600008959091370292FF0DC0282F28712830D0
:1023700019F4877F846006C0282F2471243011F45B
:102380008B7F886093FF0DC0282F2871283119F4A6
:10239000877E846106C0282F2471243111F48B7E3E
:1023A00088612091380220FF0DC0382F38713830F5
:1023B00019F4877F816006C0382F3171313011F4F4
:1023C0008E7F886021FF0DC0282F2871283119F4D5
:1023D000877E816106C0282F2171213111F48E7E04
:1023E000886194FD877E089580E008950C94580ECE
:1023F0000E9408138FE39CE90197F1F700C00000E9
:102400000E94081380E00E94321280FF04C00E94E4
:10241000F6110C948F1908950C94F8110E945E0E19
:10242000811102C00E94060F0E94690E80938401F0
:102430000E94710E90933802809337020E940C1212
:102440000E946D0E682F70E080E090E00E9493087B
:1024500060912601709127018091280190912901B6
:102460000C94CB08E82FF0E0EE0FFF1FED5BFD4F63
:10247000808191810895089580EA8A95F1F7089501
:1024800000C008950C943C1208950C9444120C94CE
:1024900045120C9444120C944912F894E82FE295DA
:1024A000EF70F0E031A9282F2F7081E090E001C09B
:1024B000880F2A95EAF7982F9095932391AB92A9CC
:1024C000892B82AB789408950F931F93CF93DF935A
:1024D000CBEED0E089918F3F11F00E944D1280E049
:1024E000C03FD807B9F7CCEDD0E00BEE10E08991F2
:1024F0008F3F11F00E944D120C171D07C1F7DF919D
:10250000CF911F910F910895BF92CF92DF92EF92DA
:10251000FF920F931F93CF93DF938C01C62FD0E0D0
:10252000CE0185519F4F6C01FC0190819F3F09F4C2
:1025300050C0B62EF894E92FE295EF70F0E081A933
:102540009F7021E030E001C0220F9A95EAF7822BBC
:1025500081AB82A92095282322AB78940E94401257
:10256000ECEDF0E04BEE50E021E030E0E12CF12C1E
:1025700061916F3F89F0A62FA295AF70B0E0D09621
:102580008C9190E06F7002C0959587956A95E2F7FF
:1025900080FD02C0C90102C080E090E0E82AF92A6B
:1025A000220F331F4E175F0719F7F60180818F3F07
:1025B00011F00E944D1261E0E114F10409F460E0B1
:1025C0008B2D0E944212CC0FDD1FC00FD11FF9824C
:1025D000E882DF91CF911F910F91FF90EF90DF90F4
:1025E000CF90BF9008950E9464128AE0E3E4F2E085
:1025F000DF01982F1D929A95E9F7E9E3F2E0DF01F8
:102600001D928A95E9F785E00E9453130C94850387
:10261000FF920F931F93CF93DF93CDB7DEB72A9727
:102620000FB6F894DEBF0FBECDBF8E010F5F1F4FF8
:102630008AE0F80111928A95E9F7F12C6F2DC80113
:102640000E948412F394F5E0FF12F8CF4AE050E0C4
:10265000B80189E392E00E94D41CFF24F394009710
:1026600009F4F12C892B41F08AE0F801A9E3B2E0EA
:1026700001900D928A95E1F72F2D45E063E472E019
:1026800089E392E00E9454130E9487038F2D2A96BB
:102690000FB6F894DEBF0FBECDBFDF91CF911F9173
:1026A0000F91FF9008950895FF920F931F93CF937A
:1026B000DF93F82E092F162FD72FC42F222349F08E
:1026C00081E0809387010E94421990938601809354
:1026D0008501809187018823D9F0809185019091AF
:1026E00086010E945A19059798F0EF2DF02FA12F1F
:1026F000BD2F80E090E04C2F50E08417950734F414
:10270000219131912D933D930196F7CF109287013E
:10271000DF91CF911F910F91FF9008950E94A91909
:102720000E944A0F0C94BA190E9430190E94A219F3
:102730000E94380F0E948E130E94C8190E94420FF7
:10274000FBCF80918E0180FF06C06091690070E030
:10275000660F771F26C081FF04C06091690084E086
:1027600005C082FF07C06091690088E0689FB001E2
:10277000112417C090918D019923D1F060916800C8
:10278000961788F72091690088E0289F900111240E
:10279000929FA001939F500D112470E0CA010E94E6
:1027A000A61C6038710540F46115710519F406C066
:1027B00068E070E0862F08958FE7089581E008951E
:1027C00080918E0180FF08C06091650070E0759572
:1027D00067957595679521C081FF06C0609165007A
:1027E00070E07595679519C082FF04C0609165001F
:1027F00070E010C090918C01992399F06091640071
:102800009617A0F780916500899FC001112470E0A0
:102810000E94A61C6038710540F46115710519F419
:1028200006C061E070E0862F08958FE7089581E08B
:1028300008958D3E21F40E94A113819504C08E3E1F
:1028400029F40E94A1138093920108958F3E21F4F0
:102850000E94A113819504C0803F29F40E94A11316
:10286000809391010895893F19F40E94E01305C0F7
:102870008A3F31F40E94E01381958093930108957B
:102880008B3F21F40E94E013819504C08C3F29F412
:102890000E94E0138093940108959FE0980F983070
:1028A00078F421E030E0A90102C0440F551F9A9549
:1028B000E2F7CA0190919001892B809390010895CD
:1028C0008D3F21F480918E0181600BC08E3F21F4F9
:1028D00080918E01826005C08F3F29F480918E0126
:1028E000846080938E0108958D3E39F49091920119
:1028F00097FF35C01092920159C08E3E29F49091F5
:1029000092011916BCF32BC0909191018F3E29F4CE
:1029100097FF25C01092910149C0803F19F4191604
:10292000CCF31DC090919301893F29F41916BCF492
:10293000109293013BC08A3F19F497FF10C0F8CF63
:102940008B3F39F49091940197FF09C01092940144
:102950002DC08C3F21F4909194011916BCF39FE097
:10296000980F983080F421E030E0A90102C0440FB4
:10297000551F9A95E2F7CA0180959091900189239D
:102980008093900113C08D3F21F480918E018E7F42
:102990000BC08E3F21F480918E018D7F05C08F3F4B
:1029A00029F480918E018B7F80938E01809191011B
:1029B000811106C080919201811102C010928D0197
:1029C00080919301811106C080919401811102C010
:1029D00010928C0108950E944219209191012111B9
:1029E00004C020919201222321F090938B018093C7
:1029F0008A0120919301211104C020919401222386
:102A000021F090938901809388018FE891E00C94E4
:102A10008918EF92FF920F931F93CF93DF9300D00B
:102A200000D000D0CDB7DEB786E0EFE8F1E0DE0100
:102A3000119601900D928A95E1F7E0909101F09046
:102A400092010091930110919401109291011092C2
:102A500092011092930110929401E11003C0FF20A3
:102A600009F45DC080918A0190918B010E945A19EE
:102A7000AC0190918D01992339F020916A0030E0EA
:102A80002417350758F04BC020916B008AE0289F2F
:102A9000900111242417350718F041C09F3F19F009
:102AA0009F5F90938D01EE2061F00E94A1131E1490
:102AB00014F09FEF01C091E0989F902D1124909306
:102AC0009101FF2061F00E94A1131F1414F09FEFE9
:102AD00001C091E0989F902D112490939201309124
:102AE00091013323E1F0209192012223C1F045EBC3
:102AF0003403C0011124992319F09093910103C06C
:102B000081E08093910135EB2303C00111249923C7
:102B100019F09093920103C081E08093920101111A
:102B200003C0112309F45DC080918801909189014F
:102B30000E945A19AC0190918C01992339F020918F
:102B4000660030E02417350758F04BC0209167002D
:102B50008AE0289F900111242417350718F041C0FE
:102B60009F3F19F09F5F90938C01002361F00E94BA
:102B7000E013101614F09FEF01C091E0989F902D84
:102B8000112490939301112361F00E94E013111618
:102B900014F09FEF01C091E0989F902D1124909325
:102BA0009401309193013323E1F020919401222389
:102BB000C1F045EB3403C0011124992319F090931F
:102BC000930103C081E08093930135EB2303C0019F
:102BD0001124992319F09093940103C081E080930C
:102BE00094018091910181110BC08091920181111A
:102BF00007C080919301811103C0809194018111DC
:102C00000E94EB14EB82FC820D831E8386E0FE01A2
:102C10003196AFE8B1E001900D928A95E1F72696E2
:102C20000FB6F894DEBF0FBECDBFDF91CF911F91DD
:102C30000F91FF90EF900895EFE8F1E086E0DF015B
:102C40001D928A95E9F710928D0110928C011092D5
:102C50008E010895CF93DF93EC01FB0182818823DD
:102C600009F43CC1C430FDE5DF0760F4CB3F9CE5CF
:102C7000D90788F49E0122503C452431310508F0E3
:102C80002EC109C0C236EDE5DE0729F0C63AFDE5E2
:102C9000DF0709F024C10E94710E909338028093DF
:102CA0003702C1318CE5D80709F4C6C008F042C02C
:102CB000C930ECE5DE0709F49BC000F5C5308CE5B2
:102CC000D80709F485C078F4C330ECE5DE0709F4D1
:102CD00078C008F07AC0C230DC4509F0F5C08091B8
:102CE00037028160EFC0C7309CE5D90709F478C08E
:102CF00008F07AC0809137028061E4C0CD30FCE5F5
:102D0000DF0709F487C058F4CB309CE5D90709F4F4
:102D100079C008F07BC08091370288606FC0CF30E7
:102D2000FCE5DF0709F480C008F082C0809137021B
:102D3000877FC8C0CE3F9CE5D90709F471C000F574
:102D4000C531FCE5DF0709F485C068F4C3319CE5B3
:102D5000D90709F475C008F095C00E943B0880911E
:102D600037028F77AFC0CC3FFCE5DF07A9F108F051
:102D700054C0CB3FDC4509F0A7C08091380240C069
:102D8000C230EDE5DE0709F489C058F4C1158DE5C0
:102D9000D80709F45AC008F069C0809138028260EF
:102DA0002FC0C236EDE5DE0709F47CC0C63AFDE56A
:102DB000DF0709F481C0C330DD4509F085C080E03C
:102DC0006EC08091370282607DC08091370216C04C
:102DD00080913702886076C08091380282604FC04F
:102DE0008091370280626EC08091370280646AC031
:102DF0000E943B0880913702806864C0846062C092
:102E000081603DC0809137028E7F5CC08091370227
:102E10008D7F58C08091370216C08091380218C04B
:102E2000809138028D7F2BC0809137028F7E4AC0FF
:102E3000809137028F7D46C0809137028F7B42C0E0
:102E400080913702877F8B7F3DC0809138028D7FD4
:102E50008E7F15C08091370282FB222720F991E0F6
:102E6000922790FB82F990FB83F92CC08091380265
:102E7000982F909591708E7F892B90FB81F980938C
:102E8000380222C00E943B088091370287FB22272C
:102E900020F991E0922790FB87F914C081E00E940D
:102EA000080F12C08091370284FB222720F991E09D
:102EB000922790FB84F906C080913702982F909555
:102EC00090FB80F98093370280913702909138020D
:102ED0000E94820E0E943B0880E001C081E0DF91E9
:102EE000CF910895CF93DF9386319C4541F5EB0157
:102EF0000E948E0D982F8A8120916200309163008C
:102F0000882379F09A7A81E009F480E08093950132
:102F1000911102C069E201C065E3C9010E9405196F
:102F20000AC080919501811102C069E201C065E388
:102F3000C9010E9407190E94D00D80E001C081E004
:102F4000DF91CF9108950F931F93CF93DF93C42FF9
:102F5000D22FFC0182818823C9F0409398010E94FE
:102F60004219909397018093960180E28C0F8830EC
:102F700008F057C0C77081E001C0880FCA95EAF712
:102F8000DF91CF911F910F910C949805809198013A
:102F9000481330C080919601909197010E945A1970
:102FA000883C910538F510E21D0FCD17B9F080E28D
:102FB0008C0F883040F4C77081E001C0880FCA953B
:102FC000EAF70E949F05183028F581E09D2F977041
:102FD00001C0880F9A95EAF70E949805802F0E94F9
:102FE0008F051830F0F4D77081E001C0880FDA95B2
:102FF000EAF70AC080E28C0F883098F4C77081E04D
:1030000001C0880FCA95EAF7DF91CF911F910F9108
:103010000C949F05802FDF91CF911F910F910C94FD
:103020008F05DF91CF911F910F9108950F939C0110
:10303000CB01243F4CE5340731F188F4293DFCE510
:103040003F07D9F02A3D4CE5340779F1283D3C454E
:10305000A9F506E221EE41EE68ED7CE52BC0263FA6
:10306000FCE53F07E1F0A8F0273F3C4539F507E2D2
:1030700025EE46EE67EF7CE51DC007E225EE45EE46
:1030800069ED7CE517C006E221EE40EE64EF7CE5D9
:1030900011C007E225EE44EE65EF7CE50BC006E2C9
:1030A00021EE42EE66EF7CE505C008E221E045EE48
:1030B0006AED7CE50E94A31780E008C0FC018281D4
:1030C000882319F01092980101C081E00F910895B2
:1030D0009093F1008093F000089590939E01809367
:1030E0009D010895E0919D01F0919E01309721F09E
:1030F0000190F081E02D099480E00895E0919D0118
:10310000F0919E01309721F00280F381E02D099427
:103110000895E0919D01F0919E01309739F022E0F1
:10312000DC012C930480F581E02D09940895209111
:103130009B0130919C012817390771F090939C01F5
:1031400080939B01E0919D01F0919E01309721F0C9
:103150000680F781E02D099408952091990130911E
:103160009A012817390771F090939A018093990179
:10317000E0919D01F0919E01309721F00084F1854E
:10318000E02D09940895FC01329697E080E091507B
:1031900029F021912223D9F38F5FF9CF0895662377
:1031A00049F0FC01329608962191621729F0E81740
:1031B000F907D1F780E0089581E008959C01FC01B2
:1031C00032969FEF80E04191461789F09F3F19F4B6
:1031D000411101C0982F8F5F8630A9F79F3F39F0CA
:1031E000F901E90FF11D97FDFA956283089508959D
:1031F0009C012A5F3F4FFC014281461301C01282AD
:10320000019682179307B9F708950C94DE180C9471
:10321000F818029626E0FC0111922A95E9F7089524
:1032200008950C9410190C9411190C9410190C9405
:1032300010190C941019CF930E9417190E940813AB
:103240000E941519C0E08C2F0E943212892B29F49C
:10325000CF5FC530C1F780E001C081E0CF91089514
:1032600008958091A10181110C94EB0308950E94AF
:103270003B080C94EF038BE083BF8AEF8CBF82E0A6
:1032800089BF08952FB7F89480914D0290914E0216
:10329000A0914F02B09150022FBF08952FB7F8941C
:1032A00060914D0270914E0280914F0290915002B8
:1032B0002FBF08959C014FB7F89480914D029091D3
:1032C0004E02A0914F02B09150024FBF821B930B50
:1032D000089578941F920F920FB60F9211248F9336
:1032E0009F93AF93BF9380914D0290914E02A09116
:1032F0004F02B09150020196A11DB11D80934D0265
:1033000090934E02A0934F02B0935002BF91AF91A1
:103310009F918F910F900FBE0F901F90189598E07E
:1033200088E10FB6F894A89581BD0FBE91BDA89510
:10333000F894D8E0CEE528E3299320E0299314BE41
:10334000FFCF08950E9442199093A00180939F019E
:1033500008950E948B1C8B9A80E0815041F0A895C3
:10336000EFE9FFE03197F1F700C00000F6CF8B984E
:10337000789408950E94AE1A0E946D182FEF80E78E
:1033800092E0215080409040E1F700C00000089595
:1033900080917802882389F0109278020E94421965
:1033A0009093A00180939F018091A1018823D1F186
:1033B0001092A1010E94371911C08091A1018111C1
:1033C00011C080919F019091A0010E945A19069707
:1033D00028F081E08093A1010E9431198091A10120
:1033E000882301F10E9431190E941B19882339F1A9
:1033F000F89421B3939A822F8C6081BB92B38CE0B6
:10340000982792BB3FE748E391E03150404090401D
:10341000E1F700C0000092B3892782BB21BB9398DB
:10342000789408950E94941B80917E02882329F04D
:1034300080915C0284FD0E94ED0F0C94551A089552
:1034400080913602089508959091A701981307C0BE
:103450002091A5013091A60126173707A9F0809386
:10346000A7017093A6016093A5018093A2017093B8
:10347000A4016093A3018091950284FF05C063E0DD
:1034800082EA91E00C94901B0895BC0184E00C94B6
:10349000241ABC0183E00C94241A2091950224FF85
:1034A00003C066E00C94901B0895CF93DF93CAE0AD
:1034B000D0E080915C0284FF18C08091B3019091AC
:1034C000B4019817E1F028E0829FC001112468E060
:1034D0008B549E4F0E948C1B8091B30190E001960B
:1034E0008F7099278093B3010AC00E94941B8FE9C3
:1034F0009FE00197F1F700C000002197D1F6DF911E
:10350000CF910895CF93DF93EC01A091B401B0E087
:10351000CD0101968F7099272091B301281779F07A
:1035200093E0AA0FBB1F9A95E1F7AB54BE4F98E00A
:10353000FE0101900D929A95E1F78093B4010E94EB
:10354000941B0E94551A88E0FE01ABEAB1E001909D
:103550000D928A95E1F7DF91CF9108958CE690E086
:103560000895FC01808180768032A1F581818130CF
:1035700061F484819581892B69F58BEA91E09093C0
:103580007A028093790288E00895823041F485E3DD
:1035900092E090937A028093790281E008958A30D4
:1035A00021F483818093350215C0893099F482819A
:1035B00093818115924081F484819581892B61F4F6
:1035C00081E08093AA01868197819093A9018093DD
:1035D000A80102C080E008958FEF08952091A8010E
:1035E0003091A901232B71F02091AA01213051F4CF
:1035F000FC018081809336021092A9011092A801EB
:1036000081E008958FEF08950895FC019381933030
:10361000D9F068F4913081F0923009F059C08EE20F
:1036200092E090937A02809379028BE3089591322D
:1036300049F19232B9F14CC089E692E090937A0256
:103640008093790282E108958281813099F050F06F
:103650008230F1F58BE792E090937A0280937902C1
:1036600086E1089585EB92E090937A028093790247
:1036700084E0089583E992E090937A02809379023E
:1036800080E208958281882329F0813009F589E557
:1036900092E002C080E492E090937A0280937902F3
:1036A00089E0089584819581009751F0019781F414
:1036B00089EB92E090937A02809379028BE70895E8
:1036C00084E393E090937A028093790280E40895F2
:1036D00080E008951F93CF93DF93162FEA0128818E
:1036E00024FF05C0398128E82327298302C02AE561
:1036F0002883212FFC01CE010296DC0131913D93FC
:1037000021501216DCF3612F0E94EE011C5F18831A
:10371000DF91CF911F9108954CE552E00C946A1B04
:1037200045E952E00C946A1BCF93DF9360917B02D2
:10373000635067FD93C080917702CCE0D0E0C81B56
:10374000D109C158DD4F80917602803120F4CE013D
:103750000E94041B81C08D3209F06EC0683009F0F0
:103760007BC083EC809351028AE5809379001092AC
:1037700075028881807621F0CE010E94B11A49C07D
:103780009A8110925A028981811106C010925B02BF
:103790002AE532E082E038C0853019F490937C024B
:1037A00030C08630A1F48B81813041F0823031F01D
:1037B000833021F0813211F0823221F4CE010E9457
:1037C000051B01C080E090E49093750222C0883010
:1037D00089F0893019F490937E0213C08A3069F021
:1037E0008B3079F48BE480935D0280939602809312
:1037F000690207C02EE732E002C02AE532E081E02C
:1038000003C02AE532E080E030937A022093790207
:1038100009C08F3F39F4988197FD8E8190E890938D
:10382000750207C09F81911104C09E81981708F40A
:10383000892F8093780010C08091750287FF0CC09B
:10384000CE010E94EE1A8F3F21F48EE18093790021
:1038500003C081111092780010927B028091790050
:1038600084FF4CC0809178008F3F09F447C0C82F77
:10387000893008F0C8E08C1B809378009091510249
:1038800088E8892780935102CC2359F180917902ED
:1038900090917A022091750226FF12C0A1E5B2E054
:1038A0002C2FAC0141555240FA01EA0FFB1FE49165
:1038B0001196EC931197215011962111F5CF08C064
:1038C000E2E5F2E0DC012C2F3D9131932150E1F74C
:1038D00001962FEF2C0F820F911D90937A02809307
:1038E00079026C2F82E592E00E94EE01CC5FCC3031
:1038F00019F08FEF80937800C093790084E190B342
:103900009C7031F48150D9F710927C0210927402AD
:10391000DF91CF910895CF93DF9385B7886085BFFE
:103920008BB780688BBFCCE5D2E08BE48983A5E9B7
:10393000B2E011968C931197E8E6F2E081838AE574
:1039400088838C938083DF91CF91089597FB072E16
:1039500016F4009407D077FD09D00E94C01C07FC24
:1039600005D03EF4909581959F4F0895709561958F
:103970007F4F0895EE0FFF1F0590F491E02D0994FD
:10398000AA1BBB1B51E107C0AA1FBB1FA617B70785
:1039900010F0A61BB70B881F991F5A95A9F78095A1
:1039A0009095BC01CD010895FB01DC0104C08D910F
:1039B0000190801921F441505040C8F7881B990BA1
:1039C0000895E199FECF9FBB8EBBE09A99278DB3F6
:1039D0000895A8E1B0E042E050E00C94141D262FB9
:1039E000E199FECF9FBB8EBBE09A01970DB2021604
:1039F00031F02DBB0FB6F894E29AE19A0FBE08950C
:103A00000396272F0E94F01C0E94EF1C252F0E9476
:103A1000F01C242F0C94F01C0196272F0E94F01C00
:103A20000C94EF1CDC01CB01FC01E199FECF06C038
:103A3000FFBBEEBBE09A31960DB20D924150504063
:083A4000B8F70895F894FFCFD8
:103A4800C8006801280850011E0A1401201A821AA9
:103A58004D1A491A451A231AFF5AE200E900EA00EA
:103A6800B500B600B700CD008301CC008A019201F1
:103A780094012102230224022502260227022A0297
:103A8800B300B4006F007000818283E200E900EAAD
:103A980000B500B600B700CD008301CC008A0192C2
:103AA8000194012102230224022502260227022A68
:103AB80002B300B4006F0070008182839263936444
:103AC800940506363534333231300762916190609F
:00000001FF
